:0400000080313728EC
:100008007E1480310B1F09280A2835284E01971DB8
:100018000E280F281A288D1D122813281A28400187
:100028004F088A004E080A0080313528171E1D28FF
:100038001E2829280D1E21282228292840014D087C
:100048008A004C080A0080313528171F2C282D28D3
:1000580035280D1F30283128352884315C2480311B
:1000680035287E100900803139288431DC2480311C
:10007800EA008431DD248031EB008431DE248031D4
:10008800EC00F901FA01203084000030850043308B
:100098008431B8248031A0308400003085003C30A1
:1000A8008431B8248031203084000130850040300C
:1000B8008431B82480317E10400182318C2A03308B
:1000C80040016202031C69286A282D290330410176
:1000D8004006031D702871282D29BF304001E30018
:1000E8000030E4006208630786000030643D870042
:1000F800FC300106031D812882282D291529F801C5
:10010800D2280330F2007808843149248031203E17
:100118008600870178084001E300E4016308F200E3
:100128006408F3000330F4000030F50083318123C4
:100138008031C3304001E5000030E60072086507F1
:1001480084007308663D8500000881007808E30094
:10015800E4016308F2006408F3000330F40000309F
:10016800F500833181238031C4304001E50000303F
:10017800E6007208650786007308663D870003304D
:10018800F2007808843149248031213E84008501B9
:10019800403F803F413F813F0130F807410142081D
:1001A8007802031CD828D92885282D29F801F12898
:1001B8007808430786000030443D8700C530400179
:1001C800E3000030E4007808630784000030643DF1
:1001D8008500000881000130F807410142087802D3
:1001E800031CF728F828DC282D2943084001D700EC
:1001F800410142084001D600D401D5012D29400112
:1002080060102D29400160145708D5005608D40005
:100218002D294001E014601408294001601560147C
:10022800082941014108003A03198328013A0319B2
:10023800DA28033A0319F928013A03190329073A76
:1002480003190629013A03190D29033A031911293B
:100258002D294001E20108004001580859040319FA
:1002680036293729582984316E2481314001E20129
:10027800D801D90166293230840083308500013FD6
:100288008A00003F0A0081314001E7006208C03E51
:10029800E800E9010030E93D680886006908870040
:1002A800670881000130E20736308400833085001A
:1002B800013F8A00003F0A008131003A031D652989
:1002C80066293F2940015108E8005008E700D00A94
:1002D8000319D10A53086802031D742952086702DA
:1002E800031C772978297D29D001D1018031632029
:1002F800813140015508E8005408E700D40A031981
:10030800D50A57086802031D8B2956086702031C83
:100318008E298F299829D401D501601C9429952903
:1003280098298131A52181314001E0189C299D2916
:10033800A129601DA029A129A429E010601160103D
:10034800080003308331A0238131400161088331E3
:10035800A023813101304001E107601DB429B5298E
:10036800BE2905308331A023813101308331A02398
:100378008131F129F801F701DA290330F200780810
:10038800843149248131213E86008701403FF500B0
:10039800413FF6007708750786000030763D8700F4
:1003A80001088331A02381310130F7070330F200BF
:1003B8007808843149248131203E8600870101086C
:1003C8007702031CE829E929C1290130F807083018
:1003D8007802031CF029F129BF29FC308331A023BE
:1003E800813108007A35203E8600013087000030D0
:1003F800C03FC13F42019D1C022A032A152A7A35B3
:10040800203E860001308700011540014008410464
:1004180003190F2A102A152A41088A0040080A00E1
:10042800823142011D1D192A1A2A2C2A7A35203EAA
:1004380086000130870081144001420843040319F3
:10044800262A272A2C2A43088A0042080A008231D1
:1004580042011908F0007A08013E1F39F1007108BD
:100468007906031D382A392A3A2A452A7A08A03EED
:1004780086008701700881007108FA000130400188
:10048800DB070800F5010330F200750884314924C0
:100498008231213E860087010030C03FC13F0330D2
:1004A800F2007508843149248231203E8600870194
:1004B80081010130F50708307502031C642A652A9A
:1004C800472A400160141430D6000030D700C830E5
:1004D800D2000030D300D801D901C430F200043072
:1004E800F3005630840083308500013F8A00003FC6
:1004F8000A008231C430F2000430F300583084001E
:1005080083308500013F8A00003F0A0082310800DD
:1005180084310A2482318331D62382318B170B1719
:1005280040015F080F39031D9A2A9B2A942A5A080A
:100538004101DC00DD015C08F2005D08F300843154
:1005480020248231813130218231643040015A06C1
:10055800031DAF2AB02AB22AEC01B92A5A08031D92
:10056800B62AB72AB92A0130EC006C080319BD2A4B
:10057800BE2AC12A0130DA07942A0130DA02942A05
:10058800803137284001980199019A013B30920047
:10059800F0309300FE30940037307E01B800F03020
:1005A800C300FC30CE00B901C401CF01BA01C501B6
:1005B800D0013730BB00F030C600FF30D1003F30EB
:1005C800BC00F030C700FF30D20011307D01CB00F5
:1005D80003307E0192000530A000BD01BE01BF01BD
:1005E800C801C901CA01D301D401D50108004E01CF
:1005F8001712F6304001CC000130CD004E019711A2
:10060800BB304001CE000330CF00483042019F008C
:1006180090309D0026309E0001309B009C01E23006
:10062800F2000430F300843188248231D830F2009B
:100638000430F30084317C2482314001C801C901AF
:10064800DE01DD010830DC00FA01F901DB014E01B1
:1006580017160800FB34023400340034F034033435
:100668005E3403349F340434A83404340034003432
:1006780000340034003400340034003400340034D2
:1006880000340034003400340034003400340034C2
:10069800003400346E340434003400340034003440
:1006A80000340034883404347C3404340034003496
:1006B800003400344E019719622B632B672B7208A4
:1006C80042019A007E2B40015C0803196C2B6D2BAC
:1006D8007E2B5E08383E86008701720881005E081E
:1006E800013E0739F3007308DE004E01971101300F
:1006F8004001DC024E0197150800F601F701721C53
:10070800862B872B8B2B7408F6077508F73D01306D
:10071800F435F50D890B8C2B0130F336F20C890B6F
:10072800912B72087304031D9A2B9B2B832B77083C
:10073800F3007608F2000800F400383084008330B3
:100748008500013F8A00003F0A008331003A0319FF
:10075800AE2BAF2BA12B7408F20034308400833009
:100768008500013F8A00003F0A00833108000830F5
:1007780040015C020318C12BC22BD32B5D08383E05
:1007880086008701010842019A0040015D08013E88
:100798000739F0007008DD000130DC07D52B4E0169
:1007A800971108007E013811400112154601960183
:1007B8007F308431CF2483314E010D130130450140
:1007C8009000A0308E0003307E019200400112118B
:1007D80090304601960008007908A03E86008701FF
:1007E8000108F3007908013E1F39F2007208F90088
:1007F8004E01171240015B080319032C042C062C28
:100808000130DB024E011716730808008431CA2430
:1008180084318231C6228431843135248431823155
:10082800462284318231FB2284318431B1248431DF
:1008380084319424843108007308F5007208F400A8
:10084800F536F40CF536F40C740846019500720878
:100858000339F4000630F435890B2F2C7408940002
:1008680008000130450190008F0191017B308D0017
:100878008C01E1304001ED000430EE004E010D1313
:100888001717A03045018E000800F400F301741C0E
:100898004E2C4F2C512C7208F3070310F20D031045
:1008A800F40C7408031D592C5A2C4B2C730808009F
:1008B80040016D086E040319622C632C682C6E08C5
:1008C8008A006D080A00843101304001DF074E01BB
:1008D8000D1308001F307905F2007235203E86009E
:1008E80001308700403F4001C800413FC90008006F
:1008F800720873040319812C822C872C7308400119
:10090800C1007208C00008007208730403198D2C16
:100918008E2C932C73084001C3007208C200080093
:100928004E010C100B140030F2000030F30084313B
:10093800BE248431080040015B08031DA42CA62CAA
:100948000130A72C0030080040015C08031DAD2CC5
:10095800AF2C0130B02C00300800803046019600E2
:100968009501403094000800640080010131890B32
:10097800B92C003473084001CB007208CA00080083
:1009880001304001D8000030D90008005101910120
:10099800930192010800F200720845018D000800D9
:1009A800463402343034013442011D121D16080049
:0E09B8002E3483340134053401340800080065
:020000040001F9
:04000E00CF3FE73FBA
:04001400FF3FFF3F6C
:00000001FF
